2222222BABBS          TEDDY          M40004000000
6354671WINSTON        WINIFRED       Q37800290050
9888765MEEKS          CHESTER        U25308900000
8574639SLIMY          SLICK          N10905800000
2341839LEGGS          HAIRY          S39003999399
4838383MILTON         MARVIN         X28904560030
8765321WHITEY         MELVIN         V34500000004
8758989PRINCELY       PRISCILLA      P07910000000
8585858SANDERS        HECTOR         R38705600000
7576858JASS           HUGH           I23104950000
4773333STANLEY        STILL          M38804250000
3212345PID            STEW           R05000200030
2123409HUGNKISS       AMANDA         F40005050000
3728179LOW            EUGENE         W23000000000
7578788SHELBINSKI     CORNELIUS      T37803600000
8888883DEW            BLUE           S23002300000
4858697McCURDY        BIRDY          I34002500000
5555555STINKSALOT     SHELBY         V20003000000
4666355STINKSALOT     DILLON         G35004020000
4321433HINDMAN        UNDER          B37588999999
4314333WARE           TUBBER         I34005555555
8787888MERTZ          ETHEL          K20307777770
4444444BIGGS          BERTHA         U33003900000
3234566STEARNS        STEVEN         K40004250000
9898766GROOMS         GRETTA         G35003950000
9864332BARSTED        BILLY          F23002350000
7765476ROPSTAM        TED            X15002800000
9888765MEEKS          CHESTER        U25308900000
8574639SLIMY          SLICK          N10905800000
2341839LEGGS          HAIRY          S39003999399
4838383MILTON         MARVIN         X28904560030
8765321WHITEY         MELVIN         V34500000004
8758989PRINCELY       PRISCILLA      P07910000000
8585858SANDERS        HECTOR         R38705600000
7576858JASS           HUGH           I23104950000
